{
  "_format": "hh-sol-artifact-1",
  "contractName": "MyEpicNFT",
  "sourceName": "contracts/MyEpicNFT.sol",
  "abi": [
    {
      "inputs": [],
      "stateMutability": "nonpayable",
      "type": "constructor"
    },
    {
      "anonymous": false,
      "inputs": [
        {
          "indexed": true,
          "internalType": "address",
          "name": "owner",
          "type": "address"
        },
        {
          "indexed": true,
          "internalType": "address",
          "name": "approved",
          "type": "address"
        },
        {
          "indexed": true,
          "internalType": "uint256",
          "name": "tokenId",
          "type": "uint256"
        }
      ],
      "name": "Approval",
      "type": "event"
    },
    {
      "anonymous": false,
      "inputs": [
        {
          "indexed": true,
          "internalType": "address",
          "name": "owner",
          "type": "address"
        },
        {
          "indexed": true,
          "internalType": "address",
          "name": "operator",
          "type": "address"
        },
        {
          "indexed": false,
          "internalType": "bool",
          "name": "approved",
          "type": "bool"
        }
      ],
      "name": "ApprovalForAll",
      "type": "event"
    },
    {
      "anonymous": false,
      "inputs": [
        {
          "indexed": false,
          "internalType": "address",
          "name": "sender",
          "type": "address"
        },
        {
          "indexed": false,
          "internalType": "uint256",
          "name": "tokenId",
          "type": "uint256"
        }
      ],
      "name": "NewEpicNFTMinted",
      "type": "event"
    },
    {
      "anonymous": false,
      "inputs": [
        {
          "indexed": true,
          "internalType": "address",
          "name": "from",
          "type": "address"
        },
        {
          "indexed": true,
          "internalType": "address",
          "name": "to",
          "type": "address"
        },
        {
          "indexed": true,
          "internalType": "uint256",
          "name": "tokenId",
          "type": "uint256"
        }
      ],
      "name": "Transfer",
      "type": "event"
    },
    {
      "inputs": [
        {
          "internalType": "address",
          "name": "to",
          "type": "address"
        },
        {
          "internalType": "uint256",
          "name": "tokenId",
          "type": "uint256"
        }
      ],
      "name": "approve",
      "outputs": [],
      "stateMutability": "nonpayable",
      "type": "function"
    },
    {
      "inputs": [
        {
          "internalType": "address",
          "name": "owner",
          "type": "address"
        }
      ],
      "name": "balanceOf",
      "outputs": [
        {
          "internalType": "uint256",
          "name": "",
          "type": "uint256"
        }
      ],
      "stateMutability": "view",
      "type": "function"
    },
    {
      "inputs": [
        {
          "internalType": "uint256",
          "name": "tokenId",
          "type": "uint256"
        }
      ],
      "name": "getApproved",
      "outputs": [
        {
          "internalType": "address",
          "name": "",
          "type": "address"
        }
      ],
      "stateMutability": "view",
      "type": "function"
    },
    {
      "inputs": [
        {
          "internalType": "address",
          "name": "owner",
          "type": "address"
        },
        {
          "internalType": "address",
          "name": "operator",
          "type": "address"
        }
      ],
      "name": "isApprovedForAll",
      "outputs": [
        {
          "internalType": "bool",
          "name": "",
          "type": "bool"
        }
      ],
      "stateMutability": "view",
      "type": "function"
    },
    {
      "inputs": [],
      "name": "makeAnEpicNFT",
      "outputs": [],
      "stateMutability": "nonpayable",
      "type": "function"
    },
    {
      "inputs": [],
      "name": "name",
      "outputs": [
        {
          "internalType": "string",
          "name": "",
          "type": "string"
        }
      ],
      "stateMutability": "view",
      "type": "function"
    },
    {
      "inputs": [
        {
          "internalType": "uint256",
          "name": "tokenId",
          "type": "uint256"
        }
      ],
      "name": "ownerOf",
      "outputs": [
        {
          "internalType": "address",
          "name": "",
          "type": "address"
        }
      ],
      "stateMutability": "view",
      "type": "function"
    },
    {
      "inputs": [
        {
          "internalType": "uint256",
          "name": "tokenId",
          "type": "uint256"
        }
      ],
      "name": "pickRandomColor",
      "outputs": [
        {
          "internalType": "string",
          "name": "",
          "type": "string"
        }
      ],
      "stateMutability": "view",
      "type": "function"
    },
    {
      "inputs": [
        {
          "internalType": "uint256",
          "name": "tokenId",
          "type": "uint256"
        }
      ],
      "name": "pickRandomFirstWord",
      "outputs": [
        {
          "internalType": "string",
          "name": "",
          "type": "string"
        }
      ],
      "stateMutability": "view",
      "type": "function"
    },
    {
      "inputs": [
        {
          "internalType": "uint256",
          "name": "tokenId",
          "type": "uint256"
        }
      ],
      "name": "pickRandomSecondWord",
      "outputs": [
        {
          "internalType": "string",
          "name": "",
          "type": "string"
        }
      ],
      "stateMutability": "view",
      "type": "function"
    },
    {
      "inputs": [
        {
          "internalType": "uint256",
          "name": "tokenId",
          "type": "uint256"
        }
      ],
      "name": "pickRandomThirdWord",
      "outputs": [
        {
          "internalType": "string",
          "name": "",
          "type": "string"
        }
      ],
      "stateMutability": "view",
      "type": "function"
    },
    {
      "inputs": [
        {
          "internalType": "address",
          "name": "from",
          "type": "address"
        },
        {
          "internalType": "address",
          "name": "to",
          "type": "address"
        },
        {
          "internalType": "uint256",
          "name": "tokenId",
          "type": "uint256"
        }
      ],
      "name": "safeTransferFrom",
      "outputs": [],
      "stateMutability": "nonpayable",
      "type": "function"
    },
    {
      "inputs": [
        {
          "internalType": "address",
          "name": "from",
          "type": "address"
        },
        {
          "internalType": "address",
          "name": "to",
          "type": "address"
        },
        {
          "internalType": "uint256",
          "name": "tokenId",
          "type": "uint256"
        },
        {
          "internalType": "bytes",
          "name": "data",
          "type": "bytes"
        }
      ],
      "name": "safeTransferFrom",
      "outputs": [],
      "stateMutability": "nonpayable",
      "type": "function"
    },
    {
      "inputs": [
        {
          "internalType": "address",
          "name": "operator",
          "type": "address"
        },
        {
          "internalType": "bool",
          "name": "approved",
          "type": "bool"
        }
      ],
      "name": "setApprovalForAll",
      "outputs": [],
      "stateMutability": "nonpayable",
      "type": "function"
    },
    {
      "inputs": [
        {
          "internalType": "bytes4",
          "name": "interfaceId",
          "type": "bytes4"
        }
      ],
      "name": "supportsInterface",
      "outputs": [
        {
          "internalType": "bool",
          "name": "",
          "type": "bool"
        }
      ],
      "stateMutability": "view",
      "type": "function"
    },
    {
      "inputs": [],
      "name": "symbol",
      "outputs": [
        {
          "internalType": "string",
          "name": "",
          "type": "string"
        }
      ],
      "stateMutability": "view",
      "type": "function"
    },
    {
      "inputs": [
        {
          "internalType": "uint256",
          "name": "tokenId",
          "type": "uint256"
        }
      ],
      "name": "tokenURI",
      "outputs": [
        {
          "internalType": "string",
          "name": "",
          "type": "string"
        }
      ],
      "stateMutability": "view",
      "type": "function"
    },
    {
      "inputs": [
        {
          "internalType": "address",
          "name": "from",
          "type": "address"
        },
        {
          "internalType": "address",
          "name": "to",
          "type": "address"
        },
        {
          "internalType": "uint256",
          "name": "tokenId",
          "type": "uint256"
        }
      ],
      "name": "transferFrom",
      "outputs": [],
      "stateMutability": "nonpayable",
      "type": "function"
    }
  ],
  "bytecode": "0x608060405260405180610100016040528060d381526020016200495160d39139600890816200002f919062000b26565b5060405180608001604052806056815260200162004a2460569139600990816200005a919062000b26565b506040518060a001604052806040518060400160405280600a81526020017f576869746552696365200000000000000000000000000000000000000000000081525081526020016040518060400160405280600c81526020017f42616b6564506f7461746f20000000000000000000000000000000000000000081525081526020016040518060400160405280600c81526020017f46726965644e6f6f646c6520000000000000000000000000000000000000000081525081526020016040518060400160405280600d81526020017f546f61737465644272656164200000000000000000000000000000000000000081525081526020016040518060400160405280600a81526020017f537465616d436f726e2000000000000000000000000000000000000000000000815250815250600a9060056200019d9291906200075f565b506040518060a001604052806040518060400160405280600681526020017f536174617920000000000000000000000000000000000000000000000000000081525081526020016040518060400160405280600a81526020017f546572726979616b69200000000000000000000000000000000000000000000081525081526020016040518060400160405280600681526020017f4772696c6c20000000000000000000000000000000000000000000000000000081525081526020016040518060400160405280600681526020017f467269656420000000000000000000000000000000000000000000000000000081525081526020016040518060400160405280600881526020017f42726f696c656420000000000000000000000000000000000000000000000000815250815250600b906005620002e09291906200075f565b506040518060a001604052806040518060400160405280600781526020017f436869636b656e0000000000000000000000000000000000000000000000000081525081526020016040518060400160405280600481526020017f426565660000000000000000000000000000000000000000000000000000000081525081526020016040518060400160405280600481526020017f506f726b0000000000000000000000000000000000000000000000000000000081525081526020016040518060400160405280600481526020017f4c616d620000000000000000000000000000000000000000000000000000000081525081526020016040518060400160405280600481526020017f4669736800000000000000000000000000000000000000000000000000000000815250815250600c906005620004239291906200075f565b506040518060c001604052806040518060400160405280600381526020017f726564000000000000000000000000000000000000000000000000000000000081525081526020016040518060400160405280600781526020017f233038433241380000000000000000000000000000000000000000000000000081525081526020016040518060400160405280600581526020017f626c61636b00000000000000000000000000000000000000000000000000000081525081526020016040518060400160405280600681526020017f79656c6c6f77000000000000000000000000000000000000000000000000000081525081526020016040518060400160405280600481526020017f626c75650000000000000000000000000000000000000000000000000000000081525081526020016040518060400160405280600581526020017f677265656e000000000000000000000000000000000000000000000000000000815250815250600d906006620005a1929190620007bf565b50348015620005af57600080fd5b506040518060400160405280600a81526020017f44696e6e657254696d65000000000000000000000000000000000000000000008152506040518060400160405280600481526020017f44494e450000000000000000000000000000000000000000000000000000000081525081600090816200062d919062000b26565b5080600190816200063f919062000b26565b5050506200068d6040518060400160405280601e81526020017f54686973206973206d79204e465420636f6e74726163742e2057686f612100008152506200069360201b620011041760201c565b62000cc0565b6200073381604051602401620006aa919062000c9c565b6040516020818303038152906040527f41304fac000000000000000000000000000000000000000000000000000000007bffffffffffffffffffffffffffffffffffffffffffffffffffffffff19166020820180517bffffffffffffffffffffffffffffffffffffffffffffffffffffffff83818316178352505050506200073660201b60201c565b50565b60008151905060006a636f6e736f6c652e6c6f679050602083016000808483855afa5050505050565b828054828255906000526020600020908101928215620007ac579160200282015b82811115620007ab5782518290816200079a919062000b26565b509160200191906001019062000780565b5b509050620007bb91906200081f565b5090565b8280548282559060005260206000209081019282156200080c579160200282015b828111156200080b578251829081620007fa919062000b26565b5091602001919060010190620007e0565b5b5090506200081b91906200081f565b5090565b5b8082111562000843576000818162000839919062000847565b5060010162000820565b5090565b508054620008559062000915565b6000825580601f106200086957506200088a565b601f0160209004906000526020600020908101906200088991906200088d565b5b50565b5b80821115620008a85760008160009055506001016200088e565b5090565b600081519050919050565b7f4e487b7100000000000000000000000000000000000000000000000000000000600052604160045260246000fd5b7f4e487b7100000000000000000000000000000000000000000000000000000000600052602260045260246000fd5b600060028204905060018216806200092e57607f821691505b602082108103620009445762000943620008e6565b5b50919050565b60008190508160005260206000209050919050565b60006020601f8301049050919050565b600082821b905092915050565b600060088302620009ae7fffffffffffffffffffffffffffffffffffffffffffffffffffffffffffffffff826200096f565b620009ba86836200096f565b95508019841693508086168417925050509392505050565b6000819050919050565b6000819050919050565b600062000a0762000a01620009fb84620009d2565b620009dc565b620009d2565b9050919050565b6000819050919050565b62000a2383620009e6565b62000a3b62000a328262000a0e565b8484546200097c565b825550505050565b600090565b62000a5262000a43565b62000a5f81848462000a18565b505050565b5b8181101562000a875762000a7b60008262000a48565b60018101905062000a65565b5050565b601f82111562000ad65762000aa0816200094a565b62000aab846200095f565b8101602085101562000abb578190505b62000ad362000aca856200095f565b83018262000a64565b50505b505050565b600082821c905092915050565b600062000afb6000198460080262000adb565b1980831691505092915050565b600062000b16838362000ae8565b9150826002028217905092915050565b62000b3182620008ac565b67ffffffffffffffff81111562000b4d5762000b4c620008b7565b5b62000b59825462000915565b62000b6682828562000a8b565b600060209050601f83116001811462000b9e576000841562000b89578287015190505b62000b95858262000b08565b86555062000c05565b601f19841662000bae866200094a565b60005b8281101562000bd85784890151825560018201915060208501945060208101905062000bb1565b8683101562000bf8578489015162000bf4601f89168262000ae8565b8355505b6001600288020188555050505b505050505050565b600082825260208201905092915050565b60005b8381101562000c3e57808201518184015260208101905062000c21565b60008484015250505050565b6000601f19601f8301169050919050565b600062000c6882620008ac565b62000c74818562000c0d565b935062000c8681856020860162000c1e565b62000c918162000c4a565b840191505092915050565b6000602082019050818103600083015262000cb8818462000c5b565b905092915050565b613c818062000cd06000396000f3fe608060405234801561001057600080fd5b50600436106101165760003560e01c806370a08231116100a2578063b88d4fde11610071578063b88d4fde14610317578063c575757a14610333578063c87b56dd14610363578063de9d132f14610393578063e985e9c51461039d57610116565b806370a082311461027d57806395d89b41146102ad578063a22cb465146102cb578063b187301f146102e757610116565b806323b872dd116100e957806323b872dd146101b55780632de38d68146101d157806342842e0e14610201578063514dc8c61461021d5780636352211e1461024d57610116565b806301ffc9a71461011b57806306fdde031461014b578063081812fc14610169578063095ea7b314610199575b600080fd5b61013560048036038101906101309190612482565b6103cd565b60405161014291906124ca565b60405180910390f35b6101536104af565b6040516101609190612575565b60405180910390f35b610183600480360381019061017e91906125cd565b610541565b604051610190919061263b565b60405180910390f35b6101b360048036038101906101ae9190612682565b610587565b005b6101cf60048036038101906101ca91906126c2565b61069e565b005b6101eb60048036038101906101e691906125cd565b6106fe565b6040516101f89190612575565b60405180910390f35b61021b600480360381019061021691906126c2565b6107f6565b005b610237600480360381019061023291906125cd565b610816565b6040516102449190612575565b60405180910390f35b610267600480360381019061026291906125cd565b61090e565b604051610274919061263b565b60405180910390f35b61029760048036038101906102929190612715565b610994565b6040516102a49190612751565b60405180910390f35b6102b5610a4b565b6040516102c29190612575565b60405180910390f35b6102e560048036038101906102e09190612798565b610add565b005b61030160048036038101906102fc91906125cd565b610af3565b60405161030e9190612575565b60405180910390f35b610331600480360381019061032c919061290d565b610beb565b005b61034d600480360381019061034891906125cd565b610c4d565b60405161035a9190612575565b60405180910390f35b61037d600480360381019061037891906125cd565b610d45565b60405161038a9190612575565b60405180910390f35b61039b610e57565b005b6103b760048036038101906103b29190612990565b611070565b6040516103c491906124ca565b60405180910390f35b60007f80ac58cd000000000000000000000000000000000000000000000000000000007bffffffffffffffffffffffffffffffffffffffffffffffffffffffff1916827bffffffffffffffffffffffffffffffffffffffffffffffffffffffff1916148061049857507f5b5e139f000000000000000000000000000000000000000000000000000000007bffffffffffffffffffffffffffffffffffffffffffffffffffffffff1916827bffffffffffffffffffffffffffffffffffffffffffffffffffffffff1916145b806104a857506104a78261119d565b5b9050919050565b6060600080546104be906129ff565b80601f01602080910402602001604051908101604052809291908181526020018280546104ea906129ff565b80156105375780601f1061050c57610100808354040283529160200191610537565b820191906000526020600020905b81548152906001019060200180831161051a57829003601f168201915b5050505050905090565b600061054c82611207565b6004600083815260200190815260200160002060009054906101000a900473ffffffffffffffffffffffffffffffffffffffff169050919050565b60006105928261090e565b90508073ffffffffffffffffffffffffffffffffffffffff168373ffffffffffffffffffffffffffffffffffffffff1603610602576040517f08c379a00000000000000000000000000000000000000000000000000000000081526004016105f990612aa2565b60405180910390fd5b8073ffffffffffffffffffffffffffffffffffffffff16610621611252565b73ffffffffffffffffffffffffffffffffffffffff161480610650575061064f8161064a611252565b611070565b5b61068f576040517f08c379a000000000000000000000000000000000000000000000000000000000815260040161068690612b34565b60405180910390fd5b610699838361125a565b505050565b6106af6106a9611252565b82611313565b6106ee576040517f08c379a00000000000000000000000000000000000000000000000000000000081526004016106e590612bc6565b60405180910390fd5b6106f98383836113a8565b505050565b6060600061073261070e846116a1565b60405160200161071e9190612c6e565b60405160208183030381529060405261176f565b9050600a80549050816107459190612cbf565b9050600a818154811061075b5761075a612cf0565b5b906000526020600020018054610770906129ff565b80601f016020809104026020016040519081016040528092919081815260200182805461079c906129ff565b80156107e95780601f106107be576101008083540402835291602001916107e9565b820191906000526020600020905b8154815290600101906020018083116107cc57829003601f168201915b5050505050915050919050565b61081183838360405180602001604052806000815250610beb565b505050565b6060600061084a610826846116a1565b6040516020016108369190612d6b565b60405160208183030381529060405261176f565b9050600d805490508161085d9190612cbf565b9050600d818154811061087357610872612cf0565b5b906000526020600020018054610888906129ff565b80601f01602080910402602001604051908101604052809291908181526020018280546108b4906129ff565b80156109015780601f106108d657610100808354040283529160200191610901565b820191906000526020600020905b8154815290600101906020018083116108e457829003601f168201915b5050505050915050919050565b60008061091a836117a2565b9050600073ffffffffffffffffffffffffffffffffffffffff168173ffffffffffffffffffffffffffffffffffffffff160361098b576040517f08c379a000000000000000000000000000000000000000000000000000000000815260040161098290612dd9565b60405180910390fd5b80915050919050565b60008073ffffffffffffffffffffffffffffffffffffffff168273ffffffffffffffffffffffffffffffffffffffff1603610a04576040517f08c379a00000000000000000000000000000000000000000000000000000000081526004016109fb90612e6b565b60405180910390fd5b600360008373ffffffffffffffffffffffffffffffffffffffff1673ffffffffffffffffffffffffffffffffffffffff168152602001908152602001600020549050919050565b606060018054610a5a906129ff565b80601f0160208091040260200160405190810160405280929190818152602001828054610a86906129ff565b8015610ad35780601f10610aa857610100808354040283529160200191610ad3565b820191906000526020600020905b815481529060010190602001808311610ab657829003601f168201915b5050505050905090565b610aef610ae8611252565b83836117df565b5050565b60606000610b27610b03846116a1565b604051602001610b139190612ed7565b60405160208183030381529060405261176f565b9050600b8054905081610b3a9190612cbf565b9050600b8181548110610b5057610b4f612cf0565b5b906000526020600020018054610b65906129ff565b80601f0160208091040260200160405190810160405280929190818152602001828054610b91906129ff565b8015610bde5780601f10610bb357610100808354040283529160200191610bde565b820191906000526020600020905b815481529060010190602001808311610bc157829003601f168201915b5050505050915050919050565b610bfc610bf6611252565b83611313565b610c3b576040517f08c379a0000000000000000000000000000000000000000000000000000000008152600401610c3290612bc6565b60405180910390fd5b610c478484848461194b565b50505050565b60606000610c81610c5d846116a1565b604051602001610c6d9190612f45565b60405160208183030381529060405261176f565b9050600c8054905081610c949190612cbf565b9050600c8181548110610caa57610ca9612cf0565b5b906000526020600020018054610cbf906129ff565b80601f0160208091040260200160405190810160405280929190818152602001828054610ceb906129ff565b8015610d385780601f10610d0d57610100808354040283529160200191610d38565b820191906000526020600020905b815481529060010190602001808311610d1b57829003601f168201915b5050505050915050919050565b6060610d5082611207565b6000600660008481526020019081526020016000208054610d70906129ff565b80601f0160208091040260200160405190810160405280929190818152602001828054610d9c906129ff565b8015610de95780601f10610dbe57610100808354040283529160200191610de9565b820191906000526020600020905b815481529060010190602001808311610dcc57829003601f168201915b505050505090506000610dfa6119a7565b90506000815103610e0f578192505050610e52565b600082511115610e44578082604051602001610e2c929190612f67565b60405160208183030381529060405292505050610e52565b610e4d846119be565b925050505b919050565b6000610e636007611a26565b90506000610e70826106fe565b90506000610e7d83610af3565b90506000610e8a84610c4d565b90506000838383604051602001610ea393929190612f8b565b60405160208183030381529060405290506000610ebf86610816565b90506000600882600985604051602001610edc94939291906130a0565b60405160208183030381529060405290506000610f2184610efc84611a34565b604051602001610f0d92919061323f565b604051602081830303815290604052611a34565b9050600081604051602001610f3691906132d0565b6040516020818303038152906040529050610f856040518060400160405280601581526020017f0a2d2d2d2d2d2d2d2d2d2d2d2d2d2d2d2d2d2d2d2d0000000000000000000000815250611104565b610fad81604051602001610f999190613364565b604051602081830303815290604052611104565b610feb6040518060400160405280601581526020017f2d2d2d2d2d2d2d2d2d2d2d2d2d2d2d2d2d2d2d2d0a0000000000000000000000815250611104565b610ff5338a611bcb565b610fff8982611be9565b6110096007611c56565b61102c604051806060016040528060258152602001613be7602591398a33611c6c565b7febb98688741ffa4c7589bf325de30cf7becb63de567842e1ccdb6cb949fdc82c338a60405161105d929190613386565b60405180910390a1505050505050505050565b6000600560008473ffffffffffffffffffffffffffffffffffffffff1673ffffffffffffffffffffffffffffffffffffffff16815260200190815260200160002060008373ffffffffffffffffffffffffffffffffffffffff1673ffffffffffffffffffffffffffffffffffffffff16815260200190815260200160002060009054906101000a900460ff16905092915050565b61119a816040516024016111189190612575565b6040516020818303038152906040527f41304fac000000000000000000000000000000000000000000000000000000007bffffffffffffffffffffffffffffffffffffffffffffffffffffffff19166020820180517bffffffffffffffffffffffffffffffffffffffffffffffffffffffff8381831617835250505050611d0b565b50565b60007f01ffc9a7000000000000000000000000000000000000000000000000000000007bffffffffffffffffffffffffffffffffffffffffffffffffffffffff1916827bffffffffffffffffffffffffffffffffffffffffffffffffffffffff1916149050919050565b61121081611d34565b61124f576040517f08c379a000000000000000000000000000000000000000000000000000000000815260040161124690612dd9565b60405180910390fd5b50565b600033905090565b816004600083815260200190815260200160002060006101000a81548173ffffffffffffffffffffffffffffffffffffffff021916908373ffffffffffffffffffffffffffffffffffffffff160217905550808273ffffffffffffffffffffffffffffffffffffffff166112cd8361090e565b73ffffffffffffffffffffffffffffffffffffffff167f8c5be1e5ebec7d5bd14f71427d1e84f3dd0314c0f7b2291e5b200ac8c7c3b92560405160405180910390a45050565b60008061131f8361090e565b90508073ffffffffffffffffffffffffffffffffffffffff168473ffffffffffffffffffffffffffffffffffffffff16148061136157506113608185611070565b5b8061139f57508373ffffffffffffffffffffffffffffffffffffffff1661138784610541565b73ffffffffffffffffffffffffffffffffffffffff16145b91505092915050565b8273ffffffffffffffffffffffffffffffffffffffff166113c88261090e565b73ffffffffffffffffffffffffffffffffffffffff161461141e576040517f08c379a000000000000000000000000000000000000000000000000000000000815260040161141590613421565b60405180910390fd5b600073ffffffffffffffffffffffffffffffffffffffff168273ffffffffffffffffffffffffffffffffffffffff160361148d576040517f08c379a0000000000000000000000000000000000000000000000000000000008152600401611484906134b3565b60405180910390fd5b61149a8383836001611d75565b8273ffffffffffffffffffffffffffffffffffffffff166114ba8261090e565b73ffffffffffffffffffffffffffffffffffffffff1614611510576040517f08c379a000000000000000000000000000000000000000000000000000000000815260040161150790613421565b60405180910390fd5b6004600082815260200190815260200160002060006101000a81549073ffffffffffffffffffffffffffffffffffffffff02191690556001600360008573ffffffffffffffffffffffffffffffffffffffff1673ffffffffffffffffffffffffffffffffffffffff168152602001908152602001600020600082825403925050819055506001600360008473ffffffffffffffffffffffffffffffffffffffff1673ffffffffffffffffffffffffffffffffffffffff16815260200190815260200160002060008282540192505081905550816002600083815260200190815260200160002060006101000a81548173ffffffffffffffffffffffffffffffffffffffff021916908373ffffffffffffffffffffffffffffffffffffffff160217905550808273ffffffffffffffffffffffffffffffffffffffff168473ffffffffffffffffffffffffffffffffffffffff167fddf252ad1be2c89b69c2b068fc378daa952ba7f163c4a11628f55a4df523b3ef60405160405180910390a461169c8383836001611e9b565b505050565b6060600060016116b084611ea1565b01905060008167ffffffffffffffff8111156116cf576116ce6127e2565b5b6040519080825280601f01601f1916602001820160405280156117015781602001600182028036833780820191505090505b509050600082602001820190505b600115611764578080600190039150507f3031323334353637383961626364656600000000000000000000000000000000600a86061a8153600a858161175857611757612c90565b5b0494506000850361170f575b819350505050919050565b60008160405160200161178291906134d3565b6040516020818303038152906040528051906020012060001c9050919050565b60006002600083815260200190815260200160002060009054906101000a900473ffffffffffffffffffffffffffffffffffffffff169050919050565b8173ffffffffffffffffffffffffffffffffffffffff168373ffffffffffffffffffffffffffffffffffffffff160361184d576040517f08c379a000000000000000000000000000000000000000000000000000000000815260040161184490613536565b60405180910390fd5b80600560008573ffffffffffffffffffffffffffffffffffffffff1673ffffffffffffffffffffffffffffffffffffffff16815260200190815260200160002060008473ffffffffffffffffffffffffffffffffffffffff1673ffffffffffffffffffffffffffffffffffffffff16815260200190815260200160002060006101000a81548160ff0219169083151502179055508173ffffffffffffffffffffffffffffffffffffffff168373ffffffffffffffffffffffffffffffffffffffff167f17307eab39ab6107e8899845ad3d59bd9653f200f220920489ca2b5937696c318360405161193e91906124ca565b60405180910390a3505050565b6119568484846113a8565b61196284848484611ff4565b6119a1576040517f08c379a0000000000000000000000000000000000000000000000000000000008152600401611998906135c8565b60405180910390fd5b50505050565b606060405180602001604052806000815250905090565b60606119c982611207565b60006119d36119a7565b905060008151116119f35760405180602001604052806000815250611a1e565b806119fd846116a1565b604051602001611a0e929190612f67565b6040516020818303038152906040525b915050919050565b600081600001549050919050565b606060008251905060008103611a5c5760405180602001604052806000815250915050611bc6565b60006003600283611a6d9190613617565b611a77919061364b565b6004611a83919061367c565b90506000602082611a949190613617565b67ffffffffffffffff811115611aad57611aac6127e2565b5b6040519080825280601f01601f191660200182016040528015611adf5781602001600182028036833780820191505090505b5090506000604051806060016040528060408152602001613c0c604091399050600181016020830160005b86811015611b835760038101905062ffffff818a015116603f8160121c168401518060081b905060ff603f83600c1c1686015116810190508060081b905060ff603f8360061c1686015116810190508060081b905060ff603f831686015116810190508060e01b90508084526004840193505050611b0a565b506003860660018114611b9d5760028114611bad57611bb8565b613d3d60f01b6002830352611bb8565b603d60f81b60018303525b508484525050819450505050505b919050565b611be582826040518060200160405280600081525061217b565b5050565b611bf282611d34565b611c31576040517f08c379a0000000000000000000000000000000000000000000000000000000008152600401611c2890613730565b60405180910390fd5b80600660008481526020019081526020016000209081611c5191906138e7565b505050565b6001816000016000828254019250508190555050565b611d06838383604051602401611c84939291906139b9565b6040516020818303038152906040527f1c7ec448000000000000000000000000000000000000000000000000000000007bffffffffffffffffffffffffffffffffffffffffffffffffffffffff19166020820180517bffffffffffffffffffffffffffffffffffffffffffffffffffffffff8381831617835250505050611d0b565b505050565b60008151905060006a636f6e736f6c652e6c6f679050602083016000808483855afa5050505050565b60008073ffffffffffffffffffffffffffffffffffffffff16611d56836117a2565b73ffffffffffffffffffffffffffffffffffffffff1614159050919050565b6001811115611e9557600073ffffffffffffffffffffffffffffffffffffffff168473ffffffffffffffffffffffffffffffffffffffff1614611e095780600360008673ffffffffffffffffffffffffffffffffffffffff1673ffffffffffffffffffffffffffffffffffffffff1681526020019081526020016000206000828254611e0191906139f7565b925050819055505b600073ffffffffffffffffffffffffffffffffffffffff168373ffffffffffffffffffffffffffffffffffffffff1614611e945780600360008573ffffffffffffffffffffffffffffffffffffffff1673ffffffffffffffffffffffffffffffffffffffff1681526020019081526020016000206000828254611e8c9190613617565b925050819055505b5b50505050565b50505050565b600080600090507a184f03e93ff9f4daa797ed6e38ed64bf6a1f0100000000000000008310611eff577a184f03e93ff9f4daa797ed6e38ed64bf6a1f0100000000000000008381611ef557611ef4612c90565b5b0492506040810190505b6d04ee2d6d415b85acef81000000008310611f3c576d04ee2d6d415b85acef81000000008381611f3257611f31612c90565b5b0492506020810190505b662386f26fc100008310611f6b57662386f26fc100008381611f6157611f60612c90565b5b0492506010810190505b6305f5e1008310611f94576305f5e1008381611f8a57611f89612c90565b5b0492506008810190505b6127108310611fb9576127108381611faf57611fae612c90565b5b0492506004810190505b60648310611fdc5760648381611fd257611fd1612c90565b5b0492506002810190505b600a8310611feb576001810190505b80915050919050565b60006120158473ffffffffffffffffffffffffffffffffffffffff166121d6565b1561216e578373ffffffffffffffffffffffffffffffffffffffff1663150b7a0261203e611252565b8786866040518563ffffffff1660e01b81526004016120609493929190613a80565b6020604051808303816000875af192505050801561209c57506040513d601f19601f820116820180604052508101906120999190613ae1565b60015b61211e573d80600081146120cc576040519150601f19603f3d011682016040523d82523d6000602084013e6120d1565b606091505b506000815103612116576040517f08c379a000000000000000000000000000000000000000000000000000000000815260040161210d906135c8565b60405180910390fd5b805181602001fd5b63150b7a0260e01b7bffffffffffffffffffffffffffffffffffffffffffffffffffffffff1916817bffffffffffffffffffffffffffffffffffffffffffffffffffffffff191614915050612173565b600190505b949350505050565b61218583836121f9565b6121926000848484611ff4565b6121d1576040517f08c379a00000000000000000000000000000000000000000000000000000000081526004016121c8906135c8565b60405180910390fd5b505050565b6000808273ffffffffffffffffffffffffffffffffffffffff163b119050919050565b600073ffffffffffffffffffffffffffffffffffffffff168273ffffffffffffffffffffffffffffffffffffffff1603612268576040517f08c379a000000000000000000000000000000000000000000000000000000000815260040161225f90613b5a565b60405180910390fd5b61227181611d34565b156122b1576040517f08c379a00000000000000000000000000000000000000000000000000000000081526004016122a890613bc6565b60405180910390fd5b6122bf600083836001611d75565b6122c881611d34565b15612308576040517f08c379a00000000000000000000000000000000000000000000000000000000081526004016122ff90613bc6565b60405180910390fd5b6001600360008473ffffffffffffffffffffffffffffffffffffffff1673ffffffffffffffffffffffffffffffffffffffff16815260200190815260200160002060008282540192505081905550816002600083815260200190815260200160002060006101000a81548173ffffffffffffffffffffffffffffffffffffffff021916908373ffffffffffffffffffffffffffffffffffffffff160217905550808273ffffffffffffffffffffffffffffffffffffffff16600073ffffffffffffffffffffffffffffffffffffffff167fddf252ad1be2c89b69c2b068fc378daa952ba7f163c4a11628f55a4df523b3ef60405160405180910390a4612412600083836001611e9b565b5050565b6000604051905090565b600080fd5b600080fd5b60007fffffffff0000000000000000000000000000000000000000000000000000000082169050919050565b61245f8161242a565b811461246a57600080fd5b50565b60008135905061247c81612456565b92915050565b60006020828403121561249857612497612420565b5b60006124a68482850161246d565b91505092915050565b60008115159050919050565b6124c4816124af565b82525050565b60006020820190506124df60008301846124bb565b92915050565b600081519050919050565b600082825260208201905092915050565b60005b8381101561251f578082015181840152602081019050612504565b60008484015250505050565b6000601f19601f8301169050919050565b6000612547826124e5565b61255181856124f0565b9350612561818560208601612501565b61256a8161252b565b840191505092915050565b6000602082019050818103600083015261258f818461253c565b905092915050565b6000819050919050565b6125aa81612597565b81146125b557600080fd5b50565b6000813590506125c7816125a1565b92915050565b6000602082840312156125e3576125e2612420565b5b60006125f1848285016125b8565b91505092915050565b600073ffffffffffffffffffffffffffffffffffffffff82169050919050565b6000612625826125fa565b9050919050565b6126358161261a565b82525050565b6000602082019050612650600083018461262c565b92915050565b61265f8161261a565b811461266a57600080fd5b50565b60008135905061267c81612656565b92915050565b6000806040838503121561269957612698612420565b5b60006126a78582860161266d565b92505060206126b8858286016125b8565b9150509250929050565b6000806000606084860312156126db576126da612420565b5b60006126e98682870161266d565b93505060206126fa8682870161266d565b925050604061270b868287016125b8565b9150509250925092565b60006020828403121561272b5761272a612420565b5b60006127398482850161266d565b91505092915050565b61274b81612597565b82525050565b60006020820190506127666000830184612742565b92915050565b612775816124af565b811461278057600080fd5b50565b6000813590506127928161276c565b92915050565b600080604083850312156127af576127ae612420565b5b60006127bd8582860161266d565b92505060206127ce85828601612783565b9150509250929050565b600080fd5b600080fd5b7f4e487b7100000000000000000000000000000000000000000000000000000000600052604160045260246000fd5b61281a8261252b565b810181811067ffffffffffffffff82111715612839576128386127e2565b5b80604052505050565b600061284c612416565b90506128588282612811565b919050565b600067ffffffffffffffff821115612878576128776127e2565b5b6128818261252b565b9050602081019050919050565b82818337600083830152505050565b60006128b06128ab8461285d565b612842565b9050828152602081018484840111156128cc576128cb6127dd565b5b6128d784828561288e565b509392505050565b600082601f8301126128f4576128f36127d8565b5b813561290484826020860161289d565b91505092915050565b6000806000806080858703121561292757612926612420565b5b60006129358782880161266d565b94505060206129468782880161266d565b9350506040612957878288016125b8565b925050606085013567ffffffffffffffff81111561297857612977612425565b5b612984878288016128df565b91505092959194509250565b600080604083850312156129a7576129a6612420565b5b60006129b58582860161266d565b92505060206129c68582860161266d565b9150509250929050565b7f4e487b7100000000000000000000000000000000000000000000000000000000600052602260045260246000fd5b60006002820490506001821680612a1757607f821691505b602082108103612a2a57612a296129d0565b5b50919050565b7f4552433732313a20617070726f76616c20746f2063757272656e74206f776e6560008201527f7200000000000000000000000000000000000000000000000000000000000000602082015250565b6000612a8c6021836124f0565b9150612a9782612a30565b604082019050919050565b60006020820190508181036000830152612abb81612a7f565b9050919050565b7f4552433732313a20617070726f76652063616c6c6572206973206e6f7420746f60008201527f6b656e206f776e6572206f7220617070726f76656420666f7220616c6c000000602082015250565b6000612b1e603d836124f0565b9150612b2982612ac2565b604082019050919050565b60006020820190508181036000830152612b4d81612b11565b9050919050565b7f4552433732313a2063616c6c6572206973206e6f7420746f6b656e206f776e6560008201527f72206f7220617070726f76656400000000000000000000000000000000000000602082015250565b6000612bb0602d836124f0565b9150612bbb82612b54565b604082019050919050565b60006020820190508181036000830152612bdf81612ba3565b9050919050565b600081905092915050565b7f46495253545f574f524400000000000000000000000000000000000000000000600082015250565b6000612c27600a83612be6565b9150612c3282612bf1565b600a82019050919050565b6000612c48826124e5565b612c528185612be6565b9350612c62818560208601612501565b80840191505092915050565b6000612c7982612c1a565b9150612c858284612c3d565b915081905092915050565b7f4e487b7100000000000000000000000000000000000000000000000000000000600052601260045260246000fd5b6000612cca82612597565b9150612cd583612597565b925082612ce557612ce4612c90565b5b828206905092915050565b7f4e487b7100000000000000000000000000000000000000000000000000000000600052603260045260246000fd5b7f434f4c4f52000000000000000000000000000000000000000000000000000000600082015250565b6000612d55600583612be6565b9150612d6082612d1f565b600582019050919050565b6000612d7682612d48565b9150612d828284612c3d565b915081905092915050565b7f4552433732313a20696e76616c696420746f6b656e2049440000000000000000600082015250565b6000612dc36018836124f0565b9150612dce82612d8d565b602082019050919050565b60006020820190508181036000830152612df281612db6565b9050919050565b7f4552433732313a2061646472657373207a65726f206973206e6f74206120766160008201527f6c6964206f776e65720000000000000000000000000000000000000000000000602082015250565b6000612e556029836124f0565b9150612e6082612df9565b604082019050919050565b60006020820190508181036000830152612e8481612e48565b9050919050565b7f5345434f4e445f574f5244000000000000000000000000000000000000000000600082015250565b6000612ec1600b83612be6565b9150612ecc82612e8b565b600b82019050919050565b6000612ee282612eb4565b9150612eee8284612c3d565b915081905092915050565b7f54484952445f574f524400000000000000000000000000000000000000000000600082015250565b6000612f2f600a83612be6565b9150612f3a82612ef9565b600a82019050919050565b6000612f5082612f22565b9150612f5c8284612c3d565b915081905092915050565b6000612f738285612c3d565b9150612f7f8284612c3d565b91508190509392505050565b6000612f978286612c3d565b9150612fa38285612c3d565b9150612faf8284612c3d565b9150819050949350505050565b60008190508160005260206000209050919050565b60008154612fde816129ff565b612fe88186612be6565b9450600182166000811461300357600181146130185761304b565b60ff198316865281151582028601935061304b565b61302185612fbc565b60005b8381101561304357815481890152600182019150602081019050613024565b838801955050505b50505092915050565b7f3c2f746578743e3c2f7376673e00000000000000000000000000000000000000600082015250565b600061308a600d83612be6565b915061309582613054565b600d82019050919050565b60006130ac8287612fd1565b91506130b88286612c3d565b91506130c48285612fd1565b91506130d08284612c3d565b91506130db8261307d565b915081905095945050505050565b7f7b226e616d65223a202200000000000000000000000000000000000000000000600082015250565b600061311f600a83612be6565b915061312a826130e9565b600a82019050919050565b7f222c20226465736372697074696f6e223a20224120686967686c79206163636c60008201527f61696d656420636f6c6c656374696f6e206f662064696e6e65722c20426f6e2060208201527f617070657469742e222c2022696d616765223a2022646174613a696d6167652f60408201527f7376672b786d6c3b6261736536342c0000000000000000000000000000000000606082015250565b60006131dd606f83612be6565b91506131e882613135565b606f82019050919050565b7f227d000000000000000000000000000000000000000000000000000000000000600082015250565b6000613229600283612be6565b9150613234826131f3565b600282019050919050565b600061324a82613112565b91506132568285612c3d565b9150613261826131d0565b915061326d8284612c3d565b91506132788261321c565b91508190509392505050565b7f646174613a6170706c69636174696f6e2f6a736f6e3b6261736536342c000000600082015250565b60006132ba601d83612be6565b91506132c582613284565b601d82019050919050565b60006132db826132ad565b91506132e78284612c3d565b915081905092915050565b7f68747470733a2f2f6e6674707265766965772e30786465762e636f6465732f3f60008201527f636f64653d000000000000000000000000000000000000000000000000000000602082015250565b600061334e602583612be6565b9150613359826132f2565b602582019050919050565b600061336f82613341565b915061337b8284612c3d565b915081905092915050565b600060408201905061339b600083018561262c565b6133a86020830184612742565b9392505050565b7f4552433732313a207472616e736665722066726f6d20696e636f72726563742060008201527f6f776e6572000000000000000000000000000000000000000000000000000000602082015250565b600061340b6025836124f0565b9150613416826133af565b604082019050919050565b6000602082019050818103600083015261343a816133fe565b9050919050565b7f4552433732313a207472616e7366657220746f20746865207a65726f2061646460008201527f7265737300000000000000000000000000000000000000000000000000000000602082015250565b600061349d6024836124f0565b91506134a882613441565b604082019050919050565b600060208201905081810360008301526134cc81613490565b9050919050565b60006134df8284612c3d565b915081905092915050565b7f4552433732313a20617070726f766520746f2063616c6c657200000000000000600082015250565b60006135206019836124f0565b915061352b826134ea565b602082019050919050565b6000602082019050818103600083015261354f81613513565b9050919050565b7f4552433732313a207472616e7366657220746f206e6f6e20455243373231526560008201527f63656976657220696d706c656d656e7465720000000000000000000000000000602082015250565b60006135b26032836124f0565b91506135bd82613556565b604082019050919050565b600060208201905081810360008301526135e1816135a5565b9050919050565b7f4e487b7100000000000000000000000000000000000000000000000000000000600052601160045260246000fd5b600061362282612597565b915061362d83612597565b9250828201905080821115613645576136446135e8565b5b92915050565b600061365682612597565b915061366183612597565b92508261367157613670612c90565b5b828204905092915050565b600061368782612597565b915061369283612597565b92508282026136a081612597565b915082820484148315176136b7576136b66135e8565b5b5092915050565b7f45524337323155524953746f726167653a2055524920736574206f66206e6f6e60008201527f6578697374656e7420746f6b656e000000000000000000000000000000000000602082015250565b600061371a602e836124f0565b9150613725826136be565b604082019050919050565b600060208201905081810360008301526137498161370d565b9050919050565b60006020601f8301049050919050565b600082821b905092915050565b60006008830261379d7fffffffffffffffffffffffffffffffffffffffffffffffffffffffffffffffff82613760565b6137a78683613760565b95508019841693508086168417925050509392505050565b6000819050919050565b60006137e46137df6137da84612597565b6137bf565b612597565b9050919050565b6000819050919050565b6137fe836137c9565b61381261380a826137eb565b84845461376d565b825550505050565b600090565b61382761381a565b6138328184846137f5565b505050565b5b818110156138565761384b60008261381f565b600181019050613838565b5050565b601f82111561389b5761386c81612fbc565b61387584613750565b81016020851015613884578190505b61389861389085613750565b830182613837565b50505b505050565b600082821c905092915050565b60006138be600019846008026138a0565b1980831691505092915050565b60006138d783836138ad565b9150826002028217905092915050565b6138f0826124e5565b67ffffffffffffffff811115613909576139086127e2565b5b61391382546129ff565b61391e82828561385a565b600060209050601f831160018114613951576000841561393f578287015190505b61394985826138cb565b8655506139b1565b601f19841661395f86612fbc565b60005b8281101561398757848901518255600182019150602085019450602081019050613962565b868310156139a457848901516139a0601f8916826138ad565b8355505b6001600288020188555050505b505050505050565b600060608201905081810360008301526139d3818661253c565b90506139e26020830185612742565b6139ef604083018461262c565b949350505050565b6000613a0282612597565b9150613a0d83612597565b9250828203905081811115613a2557613a246135e8565b5b92915050565b600081519050919050565b600082825260208201905092915050565b6000613a5282613a2b565b613a5c8185613a36565b9350613a6c818560208601612501565b613a758161252b565b840191505092915050565b6000608082019050613a95600083018761262c565b613aa2602083018661262c565b613aaf6040830185612742565b8181036060830152613ac18184613a47565b905095945050505050565b600081519050613adb81612456565b92915050565b600060208284031215613af757613af6612420565b5b6000613b0584828501613acc565b91505092915050565b7f4552433732313a206d696e7420746f20746865207a65726f2061646472657373600082015250565b6000613b446020836124f0565b9150613b4f82613b0e565b602082019050919050565b60006020820190508181036000830152613b7381613b37565b9050919050565b7f4552433732313a20746f6b656e20616c7265616479206d696e74656400000000600082015250565b6000613bb0601c836124f0565b9150613bbb82613b7a565b602082019050919050565b60006020820190508181036000830152613bdf81613ba3565b905091905056fe416e204e465420772f20494420257320686173206265656e206d696e74656420746f2025734142434445464748494a4b4c4d4e4f505152535455565758595a6162636465666768696a6b6c6d6e6f707172737475767778797a303132333435363738392b2fa26469706673582212209288f4b2aa444eeda855e70b7cb70ad27dabcba79e4f2977f781e3e7e239001a64736f6c634300081100333c73766720786d6c6e733d27687474703a2f2f7777772e77332e6f72672f323030302f73766727207072657365727665417370656374526174696f3d27784d696e594d696e206d656574272076696577426f783d273020302033353020333530273e3c7374796c653e2e62617365207b2066696c6c3a2077686974653b20666f6e742d66616d696c793a2073657269663b20666f6e742d73697a653a20323470783b207d3c2f7374796c653e3c726563742077696474683d273130302527206865696768743d2731303025272066696c6c3d27272f3e3c7465787420783d273530252720793d273530252720636c6173733d27626173652720646f6d696e616e742d626173656c696e653d276d6964646c652720746578742d616e63686f723d276d6964646c65273e",
  "linkReferences": {},
  "deployedLinkReferences": {}
}